{
  "contractName": "UniswapTokenSwap",
  "abi": [
    {
      "inputs": [],
      "stateMutability": "nonpayable",
      "type": "constructor"
    },
    {
      "inputs": [],
      "name": "uniswapRouter",
      "outputs": [
        {
          "internalType": "contract IUniswapV2Router02",
          "name": "",
          "type": "address"
        }
      ],
      "stateMutability": "view",
      "type": "function",
      "constant": true
    },
    {
      "stateMutability": "payable",
      "type": "receive",
      "payable": true
    },
    {
      "inputs": [
        {
          "internalType": "address",
          "name": "_token",
          "type": "address"
        },
        {
          "internalType": "uint256",
          "name": "_amount",
          "type": "uint256"
        }
      ],
      "name": "convertETHtoExactERC20",
      "outputs": [],
      "stateMutability": "payable",
      "type": "function",
      "payable": true
    },
    {
      "inputs": [
        {
          "internalType": "address",
          "name": "_token",
          "type": "address"
        },
        {
          "internalType": "uint256",
          "name": "_amountIn",
          "type": "uint256"
        },
        {
          "internalType": "uint256",
          "name": "_amountOutMin",
          "type": "uint256"
        }
      ],
      "name": "convertExactERC20toETH",
      "outputs": [],
      "stateMutability": "payable",
      "type": "function",
      "payable": true
    },
    {
      "inputs": [
        {
          "internalType": "address",
          "name": "_tokenIn",
          "type": "address"
        },
        {
          "internalType": "uint256",
          "name": "_amountIn",
          "type": "uint256"
        },
        {
          "internalType": "address",
          "name": "_tokenOut",
          "type": "address"
        },
        {
          "internalType": "uint256",
          "name": "_amountOutMin",
          "type": "uint256"
        }
      ],
      "name": "convertExactERC20toERC20",
      "outputs": [],
      "stateMutability": "payable",
      "type": "function",
      "payable": true
    },
    {
      "inputs": [
        {
          "internalType": "address",
          "name": "_tokenIn",
          "type": "address"
        },
        {
          "internalType": "uint256",
          "name": "_amountInMax",
          "type": "uint256"
        },
        {
          "internalType": "address",
          "name": "_tokenOut",
          "type": "address"
        },
        {
          "internalType": "uint256",
          "name": "_amountOut",
          "type": "uint256"
        }
      ],
      "name": "convertERC20toExactERC20",
      "outputs": [],
      "stateMutability": "payable",
      "type": "function",
      "payable": true
    },
    {
      "inputs": [
        {
          "internalType": "address",
          "name": "_token",
          "type": "address"
        },
        {
          "internalType": "uint256",
          "name": "_amount",
          "type": "uint256"
        }
      ],
      "name": "getEstimatedETHforERC20",
      "outputs": [
        {
          "internalType": "uint256",
          "name": "",
          "type": "uint256"
        }
      ],
      "stateMutability": "view",
      "type": "function",
      "constant": true
    },
    {
      "inputs": [],
      "name": "withdrawETH",
      "outputs": [],
      "stateMutability": "payable",
      "type": "function",
      "payable": true
    },
    {
      "inputs": [
        {
          "internalType": "contract IERC20",
          "name": "token",
          "type": "address"
        }
      ],
      "name": "withdrawERC20",
      "outputs": [],
      "stateMutability": "payable",
      "type": "function",
      "payable": true
    }
  ],
  "bytecode": "0x608060405234801561001057600080fd5b5033600160006101000a81548173ffffffffffffffffffffffffffffffffffffffff021916908373ffffffffffffffffffffffffffffffffffffffff160217905550737a250d5630b4cf539739df2c5dacb4c659f2488d6000806101000a81548173ffffffffffffffffffffffffffffffffffffffff021916908373ffffffffffffffffffffffffffffffffffffffff160217905550611687806100b56000396000f3fe60806040526004361061007f5760003560e01c8063e086e5ec1161004e578063e086e5ec1461020b578063f4f3b20014610215578063f68bedbc14610259578063fd804041146102a757610086565b8063735de9f71461008b578063802763c8146100cc5780639c3637b61461013b578063d1af4c9f1461019357610086565b3661008657005b600080fd5b34801561009757600080fd5b506100a061031f565b604051808273ffffffffffffffffffffffffffffffffffffffff16815260200191505060405180910390f35b3480156100d857600080fd5b50610125600480360360408110156100ef57600080fd5b81019080803573ffffffffffffffffffffffffffffffffffffffff16906020019092919080359060200190929190505050610343565b6040518082815260200191505060405180910390f35b6101916004803603606081101561015157600080fd5b81019080803573ffffffffffffffffffffffffffffffffffffffff169060200190929190803590602001909291908035906020019092919050505061050d565b005b610209600480360360808110156101a957600080fd5b81019080803573ffffffffffffffffffffffffffffffffffffffff16906020019092919080359060200190929190803573ffffffffffffffffffffffffffffffffffffffff169060200190929190803590602001909291905050506107d0565b005b610213610a95565b005b6102576004803603602081101561022b57600080fd5b81019080803573ffffffffffffffffffffffffffffffffffffffff169060200190929190505050610ba1565b005b6102a56004803603604081101561026f57600080fd5b81019080803573ffffffffffffffffffffffffffffffffffffffff16906020019092919080359060200190929190505050610db5565b005b61031d600480360360808110156102bd57600080fd5b81019080803573ffffffffffffffffffffffffffffffffffffffff16906020019092919080359060200190929190803573ffffffffffffffffffffffffffffffffffffffff16906020019092919080359060200190929190505050610f99565b005b60008054906101000a900473ffffffffffffffffffffffffffffffffffffffff1681565b600080670de0b6b3a764000083029050606060008054906101000a900473ffffffffffffffffffffffffffffffffffffffff1673ffffffffffffffffffffffffffffffffffffffff16631f00ca748361039b8861125e565b6040518363ffffffff1660e01b81526004018083815260200180602001828103825283818151815260200191508051906020019060200280838360005b838110156103f35780820151818401526020810190506103d8565b50505050905001935050505060006040518083038186803b15801561041757600080fd5b505afa15801561042b573d6000803e3d6000fd5b505050506040513d6000823e3d601f19601f82011682018060405250602081101561045557600080fd5b810190808051604051939291908464010000000082111561047557600080fd5b8382019150602082018581111561048b57600080fd5b82518660208202830111640100000000821117156104a857600080fd5b8083526020830192505050908051906020019060200280838360005b838110156104df5780820151818401526020810190506104c4565b505050509050016040525050509050806000815181106104fb57fe5b60200260200101519250505092915050565b6000600f420190506000670de0b6b3a7640000840290506000670de0b6b3a76400008402905060008690508073ffffffffffffffffffffffffffffffffffffffff1663095ea7b3737a250d5630b4cf539739df2c5dacb4c659f2488d856040518363ffffffff1660e01b8152600401808373ffffffffffffffffffffffffffffffffffffffff16815260200182815260200192505050602060405180830381600087803b1580156105bd57600080fd5b505af11580156105d1573d6000803e3d6000fd5b505050506040513d60208110156105e757600080fd5b8101908080519060200190929190505050506060610604886113e4565b905060008054906101000a900473ffffffffffffffffffffffffffffffffffffffff1673ffffffffffffffffffffffffffffffffffffffff166318cbafe5858584308a6040518663ffffffff1660e01b815260040180868152602001858152602001806020018473ffffffffffffffffffffffffffffffffffffffff168152602001838152602001828103825285818151815260200191508051906020019060200280838360005b838110156106c75780820151818401526020810190506106ac565b505050509050019650505050505050600060405180830381600087803b1580156106f057600080fd5b505af1158015610704573d6000803e3d6000fd5b505050506040513d6000823e3d601f19601f82011682018060405250602081101561072e57600080fd5b810190808051604051939291908464010000000082111561074e57600080fd5b8382019150602082018581111561076457600080fd5b825186602082028301116401000000008211171561078157600080fd5b8083526020830192505050908051906020019060200280838360005b838110156107b857808201518184015260208101905061079d565b50505050905001604052505050505050505050505050565b6000600f420190506000670de0b6b3a7640000850290506000670de0b6b3a76400008402905060008790508073ffffffffffffffffffffffffffffffffffffffff1663095ea7b3737a250d5630b4cf539739df2c5dacb4c659f2488d856040518363ffffffff1660e01b8152600401808373ffffffffffffffffffffffffffffffffffffffff16815260200182815260200192505050602060405180830381600087803b15801561088057600080fd5b505af1158015610894573d6000803e3d6000fd5b505050506040513d60208110156108aa57600080fd5b81019080805190602001909291905050505060606108c8898861156a565b905060008054906101000a900473ffffffffffffffffffffffffffffffffffffffff1673ffffffffffffffffffffffffffffffffffffffff16638803dbee848684308a6040518663ffffffff1660e01b815260040180868152602001858152602001806020018473ffffffffffffffffffffffffffffffffffffffff168152602001838152602001828103825285818151815260200191508051906020019060200280838360005b8381101561098b578082015181840152602081019050610970565b505050509050019650505050505050600060405180830381600087803b1580156109b457600080fd5b505af11580156109c8573d6000803e3d6000fd5b505050506040513d6000823e3d601f19601f8201168201806040525060208110156109f257600080fd5b8101908080516040519392919084640100000000821115610a1257600080fd5b83820191506020820185811115610a2857600080fd5b8251866020820283011164010000000082111715610a4557600080fd5b8083526020830192505050908051906020019060200280838360005b83811015610a7c578082015181840152602081019050610a61565b5050505090500160405250505050505050505050505050565b3373ffffffffffffffffffffffffffffffffffffffff16600160009054906101000a900473ffffffffffffffffffffffffffffffffffffffff1673ffffffffffffffffffffffffffffffffffffffff1614610b58576040517f08c379a00000000000000000000000000000000000000000000000000000000081526004018080602001828103825260188152602001807f43616c6c6572206973206e6f7420746865206f776e65722e000000000000000081525060200191505060405180910390fd5b3373ffffffffffffffffffffffffffffffffffffffff166108fc479081150290604051600060405180830381858888f19350505050158015610b9e573d6000803e3d6000fd5b50565b3373ffffffffffffffffffffffffffffffffffffffff16600160009054906101000a900473ffffffffffffffffffffffffffffffffffffffff1673ffffffffffffffffffffffffffffffffffffffff1614610c64576040517f08c379a00000000000000000000000000000000000000000000000000000000081526004018080602001828103825260188152602001807f43616c6c6572206973206e6f7420746865206f776e65722e000000000000000081525060200191505060405180910390fd5b8073ffffffffffffffffffffffffffffffffffffffff1663a9059cbb338373ffffffffffffffffffffffffffffffffffffffff166370a08231306040518263ffffffff1660e01b8152600401808273ffffffffffffffffffffffffffffffffffffffff16815260200191505060206040518083038186803b158015610ce857600080fd5b505afa158015610cfc573d6000803e3d6000fd5b505050506040513d6020811015610d1257600080fd5b81019080805190602001909291905050506040518363ffffffff1660e01b8152600401808373ffffffffffffffffffffffffffffffffffffffff16815260200182815260200192505050602060405180830381600087803b158015610d7657600080fd5b505af1158015610d8a573d6000803e3d6000fd5b505050506040513d6020811015610da057600080fd5b81019080805190602001909291905050505050565b6000600f420190506000670de0b6b3a7640000830290506060610dd78561125e565b905060008054906101000a900473ffffffffffffffffffffffffffffffffffffffff1673ffffffffffffffffffffffffffffffffffffffff1663fb3bdb4134848430886040518663ffffffff1660e01b815260040180858152602001806020018473ffffffffffffffffffffffffffffffffffffffff168152602001838152602001828103825285818151815260200191508051906020019060200280838360005b83811015610e94578082015181840152602081019050610e79565b50505050905001955050505050506000604051808303818588803b158015610ebb57600080fd5b505af1158015610ecf573d6000803e3d6000fd5b50505050506040513d6000823e3d601f19601f820116820180604052506020811015610efa57600080fd5b8101908080516040519392919084640100000000821115610f1a57600080fd5b83820191506020820185811115610f3057600080fd5b8251866020820283011164010000000082111715610f4d57600080fd5b8083526020830192505050908051906020019060200280838360005b83811015610f84578082015181840152602081019050610f69565b50505050905001604052505050505050505050565b6000600f420190506000670de0b6b3a7640000850290506000670de0b6b3a76400008402905060008790508073ffffffffffffffffffffffffffffffffffffffff1663095ea7b3737a250d5630b4cf539739df2c5dacb4c659f2488d856040518363ffffffff1660e01b8152600401808373ffffffffffffffffffffffffffffffffffffffff16815260200182815260200192505050602060405180830381600087803b15801561104957600080fd5b505af115801561105d573d6000803e3d6000fd5b505050506040513d602081101561107357600080fd5b8101908080519060200190929190505050506060611091898861156a565b905060008054906101000a900473ffffffffffffffffffffffffffffffffffffffff1673ffffffffffffffffffffffffffffffffffffffff166338ed1739858584308a6040518663ffffffff1660e01b815260040180868152602001858152602001806020018473ffffffffffffffffffffffffffffffffffffffff168152602001838152602001828103825285818151815260200191508051906020019060200280838360005b83811015611154578082015181840152602081019050611139565b505050509050019650505050505050600060405180830381600087803b15801561117d57600080fd5b505af1158015611191573d6000803e3d6000fd5b505050506040513d6000823e3d601f19601f8201168201806040525060208110156111bb57600080fd5b81019080805160405193929190846401000000008211156111db57600080fd5b838201915060208201858111156111f157600080fd5b825186602082028301116401000000008211171561120e57600080fd5b8083526020830192505050908051906020019060200280838360005b8381101561124557808201518184015260208101905061122a565b5050505090500160405250505050505050505050505050565b606080600267ffffffffffffffff8111801561127957600080fd5b506040519080825280602002602001820160405280156112a85781602001602082028036833780820191505090505b50905060008054906101000a900473ffffffffffffffffffffffffffffffffffffffff1673ffffffffffffffffffffffffffffffffffffffff1663ad5c46486040518163ffffffff1660e01b815260040160206040518083038186803b15801561131157600080fd5b505afa158015611325573d6000803e3d6000fd5b505050506040513d602081101561133b57600080fd5b81019080805190602001909291905050508160008151811061135957fe5b602002602001019073ffffffffffffffffffffffffffffffffffffffff16908173ffffffffffffffffffffffffffffffffffffffff168152505082816001815181106113a157fe5b602002602001019073ffffffffffffffffffffffffffffffffffffffff16908173ffffffffffffffffffffffffffffffffffffffff168152505080915050919050565b606080600267ffffffffffffffff811180156113ff57600080fd5b5060405190808252806020026020018201604052801561142e5781602001602082028036833780820191505090505b509050828160008151811061143f57fe5b602002602001019073ffffffffffffffffffffffffffffffffffffffff16908173ffffffffffffffffffffffffffffffffffffffff168152505060008054906101000a900473ffffffffffffffffffffffffffffffffffffffff1673ffffffffffffffffffffffffffffffffffffffff1663ad5c46486040518163ffffffff1660e01b815260040160206040518083038186803b1580156114df57600080fd5b505afa1580156114f3573d6000803e3d6000fd5b505050506040513d602081101561150957600080fd5b81019080805190602001909291905050508160018151811061152757fe5b602002602001019073ffffffffffffffffffffffffffffffffffffffff16908173ffffffffffffffffffffffffffffffffffffffff168152505080915050919050565b606080600267ffffffffffffffff8111801561158557600080fd5b506040519080825280602002602001820160405280156115b45781602001602082028036833780820191505090505b50905083816000815181106115c557fe5b602002602001019073ffffffffffffffffffffffffffffffffffffffff16908173ffffffffffffffffffffffffffffffffffffffff1681525050828160018151811061160d57fe5b602002602001019073ffffffffffffffffffffffffffffffffffffffff16908173ffffffffffffffffffffffffffffffffffffffff1681525050809150509291505056fea26469706673582212201290fa3318d04f3c49b926437f2fc2e59f7eab0af36d954c7c9c260b62f6e28c64736f6c634300060c0033",
  "immutableReferences": {},
  "source": "// SPDX-License-Identifier: MIT\npragma solidity >=0.6.6;\n\nimport \"./IUniswapV2Router02.sol\";\nimport \"@openzeppelin/contracts/token/ERC20/IERC20.sol\";\n\ncontract UniswapTokenSwap {\n\n    address internal constant UNISWAP_ROUTER_ADDRESS = 0x7a250d5630B4cF539739dF2C5dAcb4c659F2488D;\n    IUniswapV2Router02 public uniswapRouter;\n    address private _owner;\n\n    constructor() public {\n        _owner = msg.sender;\n        uniswapRouter = IUniswapV2Router02(UNISWAP_ROUTER_ADDRESS);\n    }\n\n    modifier onlyOwner() {\n        require(_owner == msg.sender, \"Caller is not the owner.\");\n        _;\n    }\n\n    function convertETHtoExactERC20(address _token, uint _amount) public payable {\n        uint deadline = block.timestamp + 15;\n        uint256 amount = _amount * 1e18;\n        address[] memory path = getPathFromETHtoERC20(_token);\n        uniswapRouter.swapETHForExactTokens{value: msg.value}(amount, path, address(this), deadline);\n\n        //(bool success,) = msg.sender.call{value: address(this).balance}(\"\");\n        //require(success, \"refund failed\");\n    }\n\n    function convertExactERC20toETH(address _token, uint _amountIn, uint _amountOutMin) public payable {\n        uint deadline = block.timestamp + 15;\n        uint256 amountIn = _amountIn * 1e18;\n        uint256 amountOutMin = _amountOutMin * 1e18;\n        IERC20 token = IERC20(_token);\n        token.approve(UNISWAP_ROUTER_ADDRESS, amountIn);\n        address[] memory path = getPathFromERC20toETH(_token);\n        uniswapRouter.swapExactTokensForETH(amountIn, amountOutMin, path, address(this), deadline);\n    }\n\n    function convertExactERC20toERC20(address _tokenIn, uint _amountIn, address _tokenOut, uint _amountOutMin) public payable {\n        uint deadline = block.timestamp + 15;\n        uint256 amountIn = _amountIn * 1e18;\n        uint256 amountOutMin = _amountOutMin * 1e18;\n        IERC20 tokenIn = IERC20(_tokenIn);\n        tokenIn.approve(UNISWAP_ROUTER_ADDRESS, amountIn);\n        address[] memory path = getPathFromERC20toERC20(_tokenIn, _tokenOut);\n        uniswapRouter.swapExactTokensForTokens(amountIn, amountOutMin, path, address(this), deadline);\n    }\n\n    function convertERC20toExactERC20(address _tokenIn, uint _amountInMax, address _tokenOut, uint _amountOut) public payable {\n        uint deadline = block.timestamp + 15;\n        uint256 amountInMax = _amountInMax * 1e18;\n        uint256 amountOut = _amountOut * 1e18;\n        IERC20 tokenIn = IERC20(_tokenIn);\n        tokenIn.approve(UNISWAP_ROUTER_ADDRESS, amountInMax);\n        address[] memory path = getPathFromERC20toERC20(_tokenIn, _tokenOut);\n        uniswapRouter.swapTokensForExactTokens(amountOut, amountInMax, path, address(this), deadline);\n    }\n\n    function getEstimatedETHforERC20(address _token, uint _amount) public view returns (uint) {\n        uint256 amount = _amount * 1e18;\n        uint[] memory estimated = uniswapRouter.getAmountsIn(amount, getPathFromETHtoERC20(_token));\n        return estimated[0];\n    }\n\n    function getPathFromETHtoERC20(address _token) private view returns (address[] memory) {\n        address[] memory path = new address[](2);\n        path[0] = uniswapRouter.WETH();\n        path[1] = _token;\n        return path;\n    }\n\n    function getPathFromERC20toETH(address _token) private view returns (address[] memory) {\n        address[] memory path = new address[](2);\n        path[0] = _token;\n        path[1] = uniswapRouter.WETH();\n        return path;\n    }\n\n    function getPathFromERC20toERC20(address _tokenIn, address _tokenOut) private view returns (address[] memory) {\n        address[] memory path = new address[](2);\n        path[0] = _tokenIn;\n        path[1] = _tokenOut;\n        return path;\n    }\n\n    // fallback function\n    receive() payable external {}\n\n    function withdrawETH() external payable onlyOwner {\n        msg.sender.transfer(address(this).balance);\n    }\n\n    function withdrawERC20(IERC20 token) external payable onlyOwner {\n        token.transfer(msg.sender, token.balanceOf(address(this)));\n    }\n}",
  "sourcePath": "/Users/jianjia/Project/Crypto/UniswapTokenSwap/contracts/UniswapTokenSwap.sol",
  "compiler": {
    "name": "solc",
    "version": "0.6.12+commit.27d51765.Emscripten.clang"
  },
  "schemaVersion": "3.2.4",
  "updatedAt": "2020-11-04T01:18:37.348Z",
  "networkType": "ethereum",
  "devdoc": {
    "kind": "dev",
    "methods": {},
    "version": 1
  },
  "userdoc": {
    "kind": "user",
    "methods": {},
    "version": 1
  }
}